:1000000004C100001FC100001DC100001BC1000091
:1000100019C1000017C1000015C1000013C1000084
:1000200011C100000FC100005CC7000073C70000D1
:1000300009C1000007C1000005C1000003C10000A4
:1000400001C10000FFC00000FDC00000FBC00000B7
:10005000F9C00000F7C00000F5C00000F3C00000C8
:10006000F1C00000EFC00000EDC00000EBC00000D8
:10007000E9C00000E7C00000E5C00000E3C00000E8
:10008000E1C00000DFC00000DDC00000DBC00000F8
:10009000D9C00000D7C00000D5C00000D3C0000008
:1000A000D1C00000CFC00000CDC00000CBC0000018
:1000B000C9C00000C7C00000C5C00000C3C0000028
:1000C000C1C00000BFC00000BDC00000BBC0000038
:1000D000B9C00000B7C00000B5C00000B3C0000048
:1000E000B1C00000AFC00000ADC00000ABC0000058
:1000F000A9C00000A7C00000A5C00000A3C0000068
:10010000A1C000009FC000009DC000009BC0000077
:1001100099C0000097C0000095C0000093C0000087
:1001200091C000008FC000008DC000008BC0000097
:1001300089C0000087C0000085C0000083C00000A7
:1001400081C000007FC000007DC000007BC00000B7
:1001500079C0000077C0000075C0000073C00000C7
:1001600071C000006FC000006DC000006BC00000D7
:1001700069C0000067C0000065C0000063C00000E7
:1001800061C000005FC000005DC000005BC00000F7
:1001900059C0000057C0000055C0000053C0000007
:1001A00051C000004FC000004DC000004BC0000017
:1001B00049C0000047C0000045C0000043C0000027
:1001C00041C000003FC000003DC000003BC0000037
:1001D00039C0000037C0000035C0000033C0000047
:1001E00031C000002FC000002DC000002BC0000057
:1001F00029C000000C94570C0C940C0DFF08ED085E
:10020000F008F308F608F908FC0811241FBECFEF28
:10021000CDBFDFE2DEBF10E2A0E0B0E2ECEAF3E245
:1002200002C005900D92AE37B107D9F722E2A0E8DF
:10023000B0E201C01D92AF3FB207E1F70E942D115D
:100240000C94D411DDCECF93DF9300D000D0CDB786
:10025000DEB78FEF809370008093710080937200FF
:100260008093730080937400809375008093760070
:100270006CE170E082E02BD68A836DE170E082E071
:1002800026D6898389819A81019621F480E493E2BC
:1002900089839A8389819A818B839C83E0E6F0E04D
:1002A00082838C8183838FB7F894E0E5F0E09081BE
:1002B000926090838FBF818181FFFDCF61E080E4F8
:1002C00090E0FFD58FB7F894E0E5F0E090819E7F55
:1002D00090838FBF2496CDBFDEBFDF91CF9108956D
:1002E000109296211092A2211092A32181EA80936C
:1002F000982180E28093992110929A2110929B215B
:1003000010929C2110929D2182E090E080939E218A
:1003100090939F211092A0211092A12180E092EC55
:10032000A1E0B0E08093A4219093A521A093A62101
:10033000B093A7211092A8211092A92188E0809360
:10034000AA21809196218F5F8093962181E0089564
:1003500080919621815080939621089580919521D6
:100360008150809395218091952110929421089538
:1003700080E0089580E008958091EF228823DCF4E6
:1003800080768032E9F58091F0228132D9F5809132
:10039000F5229091F6220797B9F584EA91E28093CD
:1003A000F7229093F82287E090E08093F9229093CF
:1003B000FA2281E008958076803241F58091F02222
:1003C000803221F0823221F581E008958091F5227A
:1003D0009091F6220797F1F48CE092E08093FB2253
:1003E0009093FC2284EA91E28093F7229093F82282
:1003F00087E090E08093F9229093FA2281E00895BB
:1004000080E0089580E0089580E0089580E00895F8
:1004100080E0089580E008950895FF920F931F9360
:10042000CF93DF938091832081119CC00E949A0A10
:10043000882351F0C0918420D09185200E94A70A82
:10044000C817D90759F48EC0C0918420D091852057
:100450000E94A20AC817D90709F484C0DFB7F8942C
:10046000C0918620EC2FF0E0EE0FFF1FE957FF4D03
:1004700080819181892B09F5809180209091812044
:10048000019680938020909381200E949A0A811186
:1004900007C080918020909181208436910558F08A
:1004A0000E949A0A882349F08091802090918120AF
:1004B0008032934010F4DFBF55C01092802010921C
:1004C000812080918220811106C081E0C11180E0ED
:1004D0008093862004C081E0C11180E0C82F81E0B4
:1004E00080938320DFBFD0E0FE01EE0FFF1FE957AE
:1004F000FF4DFF24F394808191818034910509F4AC
:10050000F12CFF2091F00E949A0A882339F00E9472
:10051000A70A80938420909385200BC00E94A20A92
:10052000809384209093852004C0109284201092A0
:100530008520FE01EE0FFF1FE957FF4D208131811D
:10054000AE01002456954795079456954795079414
:10055000542F402D44575F4D08EB12E06F2D81E87A
:100560000E94590BDF91CF911F910F91FF90089539
:10057000811115C02091862081E090E0222311F0A6
:1005800080E090E0FC01EE0FFF1FE957FF4D108265
:100590001182109282201092832080E03ECF089535
:1005A00080E03BCF08954FB7F89420910D21309112
:1005B0000E21E0910F21F0E0EE0FFF1FE05FFE4DF6
:1005C00080819181821B930B4FBF0895ECDF21E066
:1005D000892B09F420E0822F08950F931F93CF9366
:1005E000DF934FB7F89450910F2180910C21811126
:1005F00010C020910D2130910E21C52FD0E0FE01B9
:10060000EE0FFF1FE05FFE4D8081918128173907B3
:1006100018F44FBF80E023C010920D2110920E21DC
:1006200081E0511180E080930F2181E080930C21C3
:100630004FBF80E0CBDFAE0100245695479507946D
:10064000569547950794542F402D4C5E5E4D06E617
:1006500013E020E430E061E082E00E94590BDF917A
:10066000CF911F910F9108951092952110928320A0
:10067000109282201092862010928720109288205B
:100680001092892010928A20109284201092852046
:1006900080E0C3DE10920C2110920F2110921021E5
:1006A0001092112110920D2110920E2180E095DF01
:1006B000882359F0909195219F5F90939521909177
:1006C0009521913011F49093942108950F931F93E5
:1006D000942F811128C080910F21E1E08111E0E089
:1006E00061157105A9F4F0E00024F695E7950794EB
:1006F000F695E7950794FE2FE02DAF014C5E5E4D19
:1007000006E613E020E430E061E0892FD2D70BC089
:10071000F0E0EE0FFF1FE05FFE4D608371831092EB
:100720000C2180E05ADF1F910F910895E091B021D4
:10073000F091B1210190F081E02D228133812E0FC3
:100740003F1FFC014081E40FF11DE217F307A0F405
:1007500081818430A1F0861306C014C08181843069
:10076000A1F08617A9F08081E80FF11DE217F307C9
:10077000A8F380E090E0089580E090E0089580E0A4
:1007800090E008958E2F9F2F089580E090E00895C7
:100790008E2F9F2F08958091F1228F77CDC60895D7
:1007A0009091B221992381F1E091B021F091B12192
:1007B0000190F081E02D9481891740F5E093AE21FE
:1007C000F093AF21228133812E0F3F1FE217F307F1
:1007D000F8F49181943061F49281981309C0938167
:1007E000961306C0E093AE21F093AF2181E0089507
:1007F0009081E90FF11DE217F30758F3E093AE2162
:10080000F093AF2180E0089580E0089580E008959E
:1008100080E00895FF920F931F93CF93DF93C82F2B
:1008200060E0BEDFF82E882379F1A091B021B0916D
:10083000B121EC2FF0E0EE0FFF1F12962D913C91AD
:100840001397E20FF31F00811181D8011696ED91E5
:10085000FC9117970995682F8C2FA2DFF82E88231B
:1008600099F0C091AE21D091AF2165E0CE015EDF5D
:10087000EC01009719F08A81DCD7F7CFD8011296E6
:10088000ED91FC91139709958F2DDF91CF911F91D9
:100890000F91FF9008951F93CF93DF93182F80DF60
:1008A000882339F1C091AE21D091AF2165E0CE010E
:1008B0003DDFEC01009741F04C815D816B818A81C5
:1008C00052D68111F3CF15C0A091B021B091B121C2
:1008D000812F90E0880F991F1296ED91FC9113974C
:1008E000E80FF91F0190F081E02D0190F081E02DDB
:1008F0000995DF91CF911F910895CF938091B221F7
:100900008823C1F0E091B021F091B1210190F081F4
:10091000E02D8481882371F0C0E08C2F7BDFCF5FD6
:10092000E091B021F091B1210190F081E02D84811E
:10093000C81798F31092B22181E090E08093B32120
:100940009093B421CF910895CF938091B2218823C1
:1009500041F1E091B021F091B121A081B1811496D3
:100960008C918823F1F0C0E08C2F90E0880F991FC4
:100970000280F381E02DE80FF91F0190F081E02D56
:100980000084F185E02D309709F00995CF5FE09163
:10099000B021F091B121A081B18114968C91C8173A
:1009A00018F3CF910895EF92FF920F931F93CF9377
:1009B000DF931092F9221092FA221092FB221092E9
:1009C000FC221092FD221092FE222091EF2222237F
:1009D0000CF065C28091F5229091F622009709F003
:1009E00063C259C22F7109F08BC03091F0223630AA
:1009F00081F0383009F479C0311182C0029739F49E
:100A000062E070E083EB91E2A5D501E0C7C100E0B0
:100A1000C5C12091F1223091F222832F9927823093
:100A2000910599F01CF4019739F055C08330910578
:100A3000D1F10F9759F14FC080911420909115205A
:100A4000DC016C9170E086D535C0E0911420F09106
:100A500015208189281708F040C0C9019927880FFF
:100A6000991F880F991FE0911620F0911720E80F29
:100A7000F91F80819181FC01628173816BD5E091C6
:100A8000F722F091F82282E0818314C0809118202F
:100A900090911920009719F1DC0112966D917C91CB
:100AA000139758D507C021111CC064E070E088E797
:100AB00090E250D58091F5229091F6222091F92272
:100AC0003091FA228217930770F48093F922909361
:100AD000FA2201E063C100E061C100E05FC100E013
:100AE0005DC100E05BC101E059C1019739F461E0EB
:100AF00070E082EB91E22ED501E050C100E04EC1E2
:100B0000213009F03FC03091F0223A30D9F50197F9
:100B100099F58091B221882389F1C091F322D09177
:100B2000F422E090B021F090B121D701ED91FC9139
:100B30008481C81728F560E08C2F32DE082F8823C7
:100B400009F42CC1CE019927880F991FD70112965D
:100B5000ED91FC911397E80FF91F0190F081E02DC2
:100B60000680F781E02D09958093AD2161E070E06A
:100B70008DEA91E2EFD412C100E010C100E00EC195
:100B800000E00CC1223009F00BC12091F0222111AC
:100B900000C1029779F48091F32246D590E08093CA
:100BA000AB219093AC2162E070E08BEA91E2D2D469
:100BB00001E0F4C000E0F2C02F7109F090C0809114
:100BC000F022833009F4E7C018F48130B1F087C017
:100BD000853019F0893061F182C08091F5229091C1
:100BE000F622892B41F48BEC93E08093FB229093C7
:100BF000FC2201E0D3C000E0D1C08091F5229091A9
:100C0000F622892B89F48091F1229091F2220197AA
:100C100069F48091B3219091B4218D7F8093B321A9
:100C20009093B42101E0BAC000E0B8C000E0B6C0C3
:100C30008091F5229091F622892B09F046C07FD44D
:100C4000882309F444C02091F1223091F222332705
:100C5000E0911420F0911520818990E0821793078C
:100C6000C0F14BDE8091F1229091F2228093B2216B
:100C7000882389F199278150904C880F991F880FFC
:100C8000991FE0911620F0911720E80FF91FE093CB
:100C9000B021F093B1210190F081E02D848188236F
:100CA000E1F0C0E060E08C2FF6DD082F882309F426
:100CB00075C0CF5FE091B021F091B1210190F0813A
:100CC000E02D8481C81770F369C000E067C000E0C0
:100CD00065C000E063C001E061C001E05FC0213099
:100CE00009F58091F0228B30E9F48091F522909102
:100CF000F622892B99F48091B221882389F0C09142
:100D0000F322D091F1228C2F85DD082F882309F45E
:100D100045C06D2F8C2FBFDD082F40C000E03EC0C6
:100D200000E03CC0223009F03BC08091F0228130CD
:100D300019F08330B1F031C08091F5229091F62204
:100D4000892B59F48091F1229091F222892B39F468
:100D50008091F32284D4082F21C000E01FC000E05E
:100D60001DC08091F5229091F622892B71F480911B
:100D7000F1229091F222892B51F4C3EFD2E28881C3
:100D80001FD5888173D5082F09C000E007C000E097
:100D900005C000E003C000E001C000E0011189C00F
:100DA0008091EF228F718130C1F58091B22188232B
:100DB000A1F1C091F322D091F4220091B0211091C1
:100DC000B121D801ED91FC918481C81730F560E024
:100DD0008C2FE6DC882309F1CE019927880F991F13
:100DE000D8011296ED91FC911397E80FF91F00813D
:100DF0001181D8011696ED91FC9117970995682FEE
:100E00008C2FCEDC882349F0D8011496ED91FC910B
:100E100015970995082F81114CC08091EF228F7191
:100E20008230D9F58091B221882389F1E091B021F7
:100E3000F091B121A081B18114968C91882349F160
:100E400010E0212F30E0220F331F0280F381E02DCC
:100E5000E20FF31FC081D181EE81FF810995682FD8
:100E6000812F9EDC082F882321F1EC81FD810995DB
:100E7000082F81111EC01F5FE091B021F091B121B8
:100E8000A081B18114968C911817D8F212C000E09D
:100E900010C000E00EC000E00CC000E00AC0822FCD
:100EA000807609F07DCF88CE322F307609F078CF6A
:100EB00099CD802FDF91CF911F910F91FF90EF90EF
:100EC00008951BBEFC0128ED24BF60830895409166
:100ED000CA01E62FF72F8093CA0184914093CA017B
:100EE00008951F920F920FB60F9211248F939F9324
:100EF000EF93FF93E7EEF2E2808191810196808388
:100F00009183FF91EF919F918F910F900FBE0F9062
:100F10001F9018951F920F920FB60F921124CF9227
:100F2000DF92EF92FF920F931F932F933F934F9374
:100F30005F936F937F938F939F93AF93BF93EF9341
:100F4000FF934091E7225091E8228091E92290910D
:100F5000EA2248175907F0F181E0E0E0F4E08283EB
:100F6000E091ED22F091EE223097A1F1A0E0B4E003
:100F700018968D919C91199760E070E0BA01552701
:100F80004427A0E0B0E08A019B01082B192B2A2BF3
:100F90003B2BC901B8010091E9221091EA2220E01F
:100FA00030E0980111270027C090EB22D090EC226E
:100FB000E12CF12C0C291D292E293F290617170792
:100FC0002807390730F0C901B8016F5F7F4F8F4F95
:100FD0009F4F0995FF91EF91BF91AF919F918F9195
:100FE0007F916F915F914F913F912F911F910F9141
:100FF000FF90EF90DF90CF900F900FBE0F901F905B
:101000001895811118C09091E022992389F09FB71B
:10101000F894E2EEF2E22081215020839FBF08C0C5
:101020009FB7F894E2EEF2E220812F5F20839FBF0A
:101030008093E02208959091E022992389F3F8CFDC
:101040000F93E8ECF4E080818F7D808380818F7D39
:101050008083E4EBF2E202E005931092B622109254
:10106000B72200E2069300E40693ECEAF2E200E223
:10107000069300E406931092FB221092FC22109239
:10108000FD221092FE221092F9221092FA22109262
:101090009E220F9108950F9385E080939E22E5EBA9
:1010A000F2E204E00593EDEAF2E204E005930F9129
:1010B00008950F9383E080939E221092B62210929F
:1010C000B722E4EBF2E202E006930F910895E0917B
:1010D000FB22F091FC22309709F0099508950F93B7
:1010E000CF93DF9380919E22833019F4F0DFA8DF45
:1010F00060C080919A2290919B22C091F922D09158
:10110000FA22C81BD90B71F520919C2230919D22A7
:10111000820F931F80939C2290939D222091F52211
:101120003091F6228217930721F08091B521882310
:1011300041F084E080939E22ECEAF2E202E0069322
:1011400038C0E091FD22F091FE22309799F0099588
:10115000882381F010929A2210929B22C091F9224A
:10116000D091FA22C034D10528F01092B521C0E404
:10117000D0E003C081E08093B521C093B622D09324
:10118000B72280919A2290919B222091F722309150
:10119000F822280F391F2093B8223093B922C80FA4
:1011A000D91FC0939A22D0939B22E4EBF2E202E093
:1011B0000693DF91CF910F910895FC018181877093
:1011C00090E0FC013197E730F10520F4E250FF4F49
:1011D0000C94C51188E090E0089580E290E00895B5
:1011E00080E490E0089580E890E0089580E091E048
:1011F000089580E092E008958FEF93E0089580E1F4
:1012000090E00895282F2F7030E0220F331F992788
:1012100087FD90958827990F881F9927820F931F24
:1012200002979C01220F331F220F331F220F331FFF
:10123000820F931F8A5C9D4D08950F93CF938091E9
:10124000CC0480FF62C081E08093CC04ECEAF2E23F
:1012500000E80693E4EBF2E200E806938093CA0408
:10126000ECEAF2E200E1069380919E22882329F0C5
:101270008350823008F42BDFE3DE8091AE22909120
:10128000AF22089709F043C088E0EAE5F2E2AFEE4A
:10129000B2E201900D928A95E1F7E8ECF4E08081EA
:1012A000806280838081806280837DDBC82F811192
:1012B00003C0F1DEC1E02CC08091EF2288236CF4E2
:1012C00010929C2210929D2210929A2210929B22A0
:1012D00082E080939E2203DF1BC02091F522309193
:1012E000F622232B11F4E5DE13C010929C221092FB
:1012F0009D2210929A2210929B2281E080939E223E
:10130000ECEAF2E202E0069303C0C0E001C0C1E0F3
:101310008C2FCF910F910895BF92CF92DF92EF92D1
:10132000FF920F931F93CF93DF93B82E6BDFEC01E7
:101330001B2D111F1127111F8B2D8F70E82EF12CE3
:10134000EE0CFF1CE10EF11CC701880F991F880FDE
:10135000991F880F991F9C0124553D4D7901C901A2
:101360002CDF6C01112309F459C0D70116962D9179
:101370003C9117978D819E81280F391F2D833E83C5
:101380008B819C8128173907B9F1FC01E21BF30B13
:101390009F012115F4E03F0738F02FEF33E0C9013A
:1013A000B601DFD7281B390B888181FF09C0C9012D
:1013B000B601D7D741E0892B09F040E0942F01C056
:1013C00090E0888190FB81F98883D70116961D9261
:1013D0001C92179712962D933C93139729813A816B
:1013E0008D819E81820F931F14968D939C931597E8
:1013F000F70102E0069394C0888181FF83C08D7F4E
:101400008883D70116961D921C92179712961D92EB
:101410001C921397F70102E0069382C0D70112963F
:101420000D911C911397888182FF13C0E981FA8185
:101430002D813E818B819C81B60193D7B0E4BB9E08
:10144000B00111246A587E4DAC01CF01820F931F69
:10145000A2D72D813E81200F311F2D833E83EB814A
:10146000FC81E217F30710F4ED83FE83D701169693
:101470008D919C9117978017910709F043C08D813A
:101480009E81E817F90709F43DC0E81BF90BE11547
:10149000B4E0FB0740F0EFEFF3E0CF01B60161D716
:1014A000E81BF90B05C0CF01B6015BD7E81BF90BB0
:1014B000D70112961D921C921397EC15FD0578F436
:1014C000888184608883B0E4BB9EC00111248A585F
:1014D0009E4DF70184839583C682D7820FC02981F0
:1014E0003A818D819E81820F931FD70114968D932F
:1014F0009C9315971696ED93FC931797F70102E0CE
:1015000006930EC0888180FF0BC08E7F8883EF8199
:10151000F885309729F06D817E814B2D80E009950B
:10152000DF91CF911F910F91FF90EF90DF90CF90BF
:10153000BF90089580E008958093C304089580913A
:10154000C30408958091DC229091DD22089580E00B
:1015500090E008958093F7229093F8226093F92207
:101560007093FA220895E82FEF70F0E0EE0FFF1F5E
:10157000992787FD90958827990F881F9927E80F4D
:10158000F91FEE0FFF1FEE0FFF1FEE0FFF1FE455B9
:10159000FD4D8181807C09F043C06370613029F08A
:1015A00010F480E403C080E801C080EC40385105AD
:1015B000E1F050F440325105A1F04034510599F06A
:1015C0004031510561F419C0411592E0590789F085
:1015D0004F3F93E0590779F04115514041F020E029
:1015E0000DC022E00BC023E009C024E007C025E0C5
:1015F00005C026E003C027E001C021E0118296E08B
:101600009083822B81838181807C803C21F4818145
:101610008770873039F081818062818381E008950D
:1016200080E0089581E00895E82FEF70F0E0EE0F7C
:10163000FF1F992787FD90958827990F881F992765
:10164000E80FF91FEE0FFF1FEE0FFF1FEE0FFF1F3A
:10165000E455FD4D818182FB882780F90895E82FAC
:10166000EF70F0E0EE0FFF1F282F332727FD309596
:101670002227330F221F3327E20FF31FEE0FFF1F26
:10168000EE0FFF1FEE0FFF1FE455FD4D918192FFFE
:101690000EC091819B7F9183B5DDFC01808180FF2D
:1016A00006C08E7F80830780F085E02D099581E05C
:1016B00008957F928F929F92AF92BF92CF92DF92C6
:1016C000EF92FF920F931F93CF93DF93982E862E66
:1016D0005A01690197DD7C01792C771C7724771CEE
:1016E000C92DCF70D0E0CC0FDD1FC70DD11DCC0FA1
:1016F000DD1FCC0FDD1FCC0FDD1FC455DD4D8981F3
:10170000807C09F44BC08981807C803C19F0898100
:1017100082FD46C08FB7F894F701908190FF03C017
:101720008FBF712C3EC0F7019081916090838FBF75
:10173000F701A182B282C382D48215821682078306
:101740001087811006C091E0C114D10419F090E017
:1017500001C091E0F701808190FB81F98B7F80834C
:10176000772019F01E821F8214C08981807C803C02
:1017700061F4CE0122DDBC01C601F3D5892B29F02D
:10178000F70180818E7F80830CC01A821B821E82AB
:101790001F82892DC1DD7724739403C0712C01C091
:1017A000712C872DDF91CF911F910F91FF90EF90BA
:1017B000DF90CF90BF90AF909F908F907F900895D3
:1017C000FF920F931F93CF93DF93182FF82EFF1CD8
:1017D000FF24FF1CC82FCF70D0E0CC0FDD1FCF0D32
:1017E000D11DCC0FDD1FCC0FDD1FCC0FDD1FC4556D
:1017F000DD4D08DDDC01FE0102E005938C9180FFE8
:1018000012C08E7F8C931796ED91FC9118973097AC
:1018100051F0FF2019F06E817F8102C06A817B81C7
:10182000412F81E00995DF91CF911F910F91FF909A
:101830000895CF93C82FC4DFEC2FEF70F0E0EE0FC8
:10184000FF1F8C2F992787FD90958827990F881F58
:101850009927E80FF91FEE0FFF1FEE0FFF1FEE0F86
:10186000FF1FE455FD4D1182CF9108950F93E82F8E
:10187000EF70F0E0EE0FFF1F282F332727FD309584
:101880002227330F221F3327E20FF31FEE0FFF1F14
:10189000EE0FFF1FEE0FFF1FE455FD4D9181946089
:1018A000918301E006938CDF81E00F9108951F92F0
:1018B0000F920FB60F9211240F932F933F934F93D4
:1018C0005F936F937F938F939F93AF93BF93EF93A8
:1018D000FF938091CB0488232CF480E88093CA0482
:1018E00033D888C08091CB0482FF20C084E08093ED
:1018F000CA048091B42286FF7DC08091CC0481FD12
:1019000079C09BDC811176C080919E22813011F4D8
:10191000D0DB70C0843009F06DC0E5EBF2E204E08A
:101920000593EDEAF2E204E0059364C08091CB04F4
:1019300081FF5BC082E08093CA048091AC2286FF65
:1019400059C08091CC0481FD55C077DC811152C013
:1019500080919E22823041F484E080939E22ECEAC2
:10196000F2E202E0069346C0833009F043C0E5EBA3
:10197000F2E204E00593EDEAF2E204E005933AC0F6
:1019800080E18093CA0481E01BDF81E819DF0E94B7
:101990007D041092C304EDEAF2E2108296E0909387
:1019A000AC2283E48083E5EBF2E210829093B422D0
:1019B00080838AE592E28093B0229093B12240DB4B
:1019C00019C08091CB0486FF06C080E48093CA04CE
:1019D00080E017DB0FC08091CB0485FF0BC080E255
:1019E0008093CA0481E00DDB05C08091CB0484FFA5
:1019F000E8CFC6CFFF91EF91BF91AF919F918F91AB
:101A00007F916F915F914F913F912F910F910F9027
:101A10000FBE0F901F9018951F920F920FB60F9246
:101A200011240F931F932F933F934F935F936F93C3
:101A30007F938F939F93AF93BF93CF93DF93EF9356
:101A4000FF938091CC0481FD03C0F7DB8111B8C006
:101A500082E08093CC048091C5048195880FECEAE4
:101A6000F2E2E81BF109208131812C5A324236958D
:101A700027953695279536952795822F869520FFB1
:101A800002C090E801C090E0890FE82FEF70F0E00D
:101A9000EE0FFF1F282F332727FD30952227330F06
:101AA000221F3327E20FF31FEE0FFF1FEE0FFF1F62
:101AB000EE0FFF1FE455FD4D908195FF81C000E2C0
:101AC0000693811178C080919E22843019F4FFDA48
:101AD000B7DA76C0C091AE22D091AF228091F922C0
:101AE0009091FA2200919A2210919B2298012C0F3A
:101AF0003D1F8217930718F4EC01C01BD10B809196
:101B0000F7229091F822AE016AE572E2800F911FF0
:101B100042D40C0F1D1F00939A2210939B22C034B5
:101B2000D10569F480919C2290919D22800F911F94
:101B30002091F5223091F6228217930788F00093C6
:101B4000F9221093FA22E091FD22F091FE223097C3
:101B500029F00995811102C09EDA32C0AADA30C09C
:101B60008091F9229091FA2208171907F9F4E0916F
:101B7000FD22F091FE22309711F48DDA21C00995F3
:101B8000811102C088DA1CC020919C2230919D22D4
:101B900080919A2290919B22820F931F80939C2286
:101BA00090939D2210929A2210929B22ECEAF2E2EC
:101BB00002E0069305C0803811F491DA01C0ACDB75
:101BC000FF91EF91DF91CF91BF91AF919F918F9155
:101BD0007F916F915F914F913F912F911F910F9145
:101BE0000F900FBE0F901F901895CF93DF930E9418
:101BF000230126D1E0EEF7E082E0828391E0928338
:101C0000E0E8F6E038E0328324E0228382839283A6
:101C1000E0E6F6E040E2428350E15283E0E4F6E0A1
:101C200060E8628370E4728342835283A0E0B6E08E
:101C300011963C93119711965C93119711964C93C2
:101C4000119711967C93119711966C931197C0E29E
:101C5000D6E0998389832983398391838183218382
:101C600015963C93159715965C93159715964C937E
:101C7000159715967C93159715966C939D838D8378
:101C80002D833D83958385832583DF91CF910895AF
:101C90008130910531F08230910569F0892B79F41A
:101CA00005C088E0E0E0F6E08683089588E0E0E0A3
:101CB000F6E08583089588E0E0E0F6E08783089504
:101CC0008130910531F08230910569F0892B79F4EA
:101CD00005C080E1E0E0F6E08683089580E1E0E081
:101CE000F6E08583089580E1E0E0F6E087830895DB
:101CF0008130910531F08230910569F0892B79F4BA
:101D000005C082E0E0E2F6E08683089582E0E0E24A
:101D1000F6E08583089582E0E0E2F6E087830895A7
:101D20008130910531F08230910569F0892B79F489
:101D300005C084E0E0E2F6E08683089584E0E0E216
:101D4000F6E08583089584E0E0E2F6E08783089575
:101D50008130910531F08230910569F0892B79F459
:101D600005C088E0E0E2F6E08683089588E0E0E2DE
:101D7000F6E08583089588E0E0E2F6E08783089541
:101D80008130910531F08230910569F0892B79F429
:101D900005C081E0E0E4F6E08683089581E0E0E4B8
:101DA000F6E08583089581E0E0E4F6E08783089516
:101DB0008130910531F08230910569F0892B79F4F9
:101DC00005C082E0E0E4F6E08683089582E0E0E486
:101DD000F6E08583089582E0E0E4F6E087830895E5
:101DE000E0EEF7E0908581E08927817090E008952A
:101DF000E0E8F6E0808586958695869591E08927CE
:101E0000817090E00895E0E8F6E08085869591E0A5
:101E10008927817090E00895E0E8F6E0908581E000
:101E20008927817090E00895E0E4F6E0808582954E
:101E300086958695837091E08927817090E008955A
:101E400088E0E0E4F6E08283089581E090E098DFA6
:101E500080E094EBA4ECB4E00197A109B1090097EC
:101E6000A105B105C9F781E090E0A2DF80E09AE624
:101E7000A8E1B0E00197A109B1090097A105B1055A
:101E8000C9F780E090E094DFCFDF0197E9F3089590
:101E9000CF93DF93EC0181E090E072DF40E055E307
:101EA0006CE070E04150510961097109411551051B
:101EB00061057105B9F7209709F477C0219709F0FA
:101EC000E8C081E090E02CDF80E090E041DF80E03E
:101ED00090E0F6DE80E89AE1A6E0B0E00197A10983
:101EE000B1090097A105B105C9F781E090E000DFD5
:101EF00080E09AE6A8E1B0E00197A109B109009756
:101F0000A105B105C9F780E090E0F2DE81E090E044
:101F1000BFDE80E898E3A1E0B0E00197A109B10934
:101F20000097A105B105C9F780E090E0B1DE80E837
:101F300090ECA4E1B0E00197A109B1090097A105D7
:101F4000B105C9F781E090E0A3DE80E898E3A1E065
:101F5000B0E00197A109B1090097A105B105C9F742
:101F600080E090E095DE80E098E8A3E1B0E00197A2
:101F7000A109B1090097A105B105C9F781E090E079
:101F800087DE80E898E3A1E0B0E00197A109B109FC
:101F90000097A105B105C9F780E090E079DE84E102
:101FA0009FE0019709F474C074C080E090E0B8DE4F
:101FB00080E090E0CDDE81E090E082DE80E095E39D
:101FC000ACE0B0E00197A109B1090097A105B10506
:101FD000C9F781E090E08CDE80E09AE6A8E1B0E00D
:101FE0000197A109B1090097A105B105C9F780E0E2
:101FF00090E07EDE81E090E04BDE80E898E3A1E0B7
:10200000B0E00197A109B1090097A105B105C9F791
:1020100080E090E03DDE80E097E1A1E1B0E0019753
:10202000A109B1090097A105B105C9F781E090E0C8
:102030002FDE80E898E3A1E0B0E00197A109B109A3
:102040000097A105B105C9F780E090E021DE80E8A6
:1020500090ECA4E1B0E00197A109B1090097A105B6
:10206000B105C9F781E090E013DE80E898E3A1E0D4
:10207000B0E00197A109B1090097A105B105C9F721
:1020800080E090E005DE84E19FE0019711F4FFCF4E
:10209000FFCFDF91CF910895CF93DF93EC0181E0E3
:1020A00090E06EDE40E055E36CE070E04150510995
:1020B000610971094115510561057105B9F720974D
:1020C00009F43BC0219709F070C081E090E028DE60
:1020D00081E090E03DDE80E090E0F2DD80E090E0A5
:1020E000019680342CE99207D9F781E090E000DE78
:1020F00080E099EFA5E1B0E00197A109B10900974F
:10210000A105B105C9F780E090E0F2DD81E090E043
:10211000BFDD80E898E3A1E0B0E00197A109B10933
:102120000097A105B105C9F780E090E0B1DD84E139
:102130009FE0019709F438C038C080E090E0F0DDFE
:1021400081E090E005DE81E090E0BADD80E090E0A3
:10215000019680342CE99207D9F781E090E0C8DD40
:1021600080E099EFA5E1B0E00197A109B1090097DE
:10217000A105B105C9F780E090E0BADD81E090E00B
:1021800087DD80E898E3A1E0B0E00197A109B109FB
:102190000097A105B105C9F780E090E079DD84E101
:1021A0009FE0019711F4FFCFFFCFDF91CF9108950A
:1021B0008130910589F01CF4892B39F021C08230DF
:1021C000910589F00397B1F01BC080E090E0A8DD95
:1021D00080E090E0BDDD14C081E090E0A1DD80E012
:1021E00090E0B6DD0DC080E090E09ADD81E090E007
:1021F000AFDD06C081E090E093DD81E090E0A8DDF6
:1022000080E095E3ACE0B0E00197A109B109009747
:10221000A105B105C9F781E090E06ADD80E099E0B1
:10222000ADE3B0E00197A109B1090097A105B1059F
:10223000C9F780E090E05CDD84E19FE0019761F008
:1022400080E099E0ADE3B0E00197A109B109009702
:10225000A105B105C9F70895FFCFC7DCF6DD80E021
:1022600099E0ADE3B0E00197A109B1090097A1059C
:10227000B105C9F7B5DD892BC1F080E090E098DFAA
:1022800081E090E080937C2090937D20C1E0D0E0BD
:10229000C12C0F2EF9E0DF2EF02D0F2EFDE3EF2ED7
:1022A000F02DF12C01E010E031C082E090E080DF01
:1022B00010927C2010927D20E9CF92DD20917C202D
:1022C00030917D208217930709F12130310579F48F
:1022D000C130D10521F482E090E06ADF03C083E0E1
:1022E00090E066DF10927C2010927D200FC0232B9F
:1022F00069F4C130D10521F480E090E059DF02C0DB
:10230000C80156DF00937C2010937D2071DD892B5E
:1023100031F482DD892B19F476DD892B71F220915D
:102320007C2030917D202130310519F4CE01B0DDC3
:1023300004C0232B11F4CE01AFDE4C2D5D2D6E2D8C
:102340007F2D415051096109710941155105610500
:102350007105B9F781E0219709F480E0C82FD0E03A
:10236000D5CFAA1BBB1B51E107C0AA1FBB1FA617D5
:10237000B70710F0A61BB70B881F991F5A95A9F72E
:1023800080959095BC01CD010895EE0FFF1F05903B
:10239000F491E02D0994FB01DC0102C001900D9243
:0C23A00041505040D8F70895F894FFCF4A
:1023AC003403AE01B801BA01D0027001A801BC011E
:1023BC00BA01000066201A20000022201E200A20EC
:1023CC00002009024300020100C032090400000190
:1023DC000202010005240010010424020205240657
:1023EC0000010524010301070582034000100904C4
:1023FC000100020A000000070581024000000705E9
:10240C000202400000001201000202000040EB0337
:0E241C00042400010000000104030904010073
:00000001FF
