S0130000445344504C435F424153452E73726563DD
S113000004C100001FC100001DC100001BC100008D
S113001019C1000017C1000015C1000013C1000080
S113002011C100000FC100000FC7000026C7000067
S113003009C1000007C1000005C1000003C10000A0
S113004001C10000FFC00000FDC00000FBC00000B3
S1130050F9C00000F7C00000F5C00000F3C00000C4
S1130060F1C00000EFC00000EDC00000EBC00000D4
S1130070E9C00000E7C00000E5C00000E3C00000E4
S1130080E1C00000DFC00000DDC00000DBC00000F4
S1130090D9C00000D7C00000D5C00000D3C0000004
S11300A0D1C00000CFC00000CDC00000CBC0000014
S11300B0C9C00000C7C00000C5C00000C3C0000024
S11300C0C1C00000BFC00000BDC00000BBC0000034
S11300D0B9C00000B7C00000B5C00000B3C0000044
S11300E0B1C00000AFC00000ADC00000ABC0000054
S11300F0A9C00000A7C00000A5C00000A3C0000064
S1130100A1C000009FC000009DC000009BC0000073
S113011099C0000097C0000095C0000093C0000083
S113012091C000008FC000008DC000008BC0000093
S113013089C0000087C0000085C0000083C00000A3
S113014081C000007FC000007DC000007BC00000B3
S113015079C0000077C0000075C0000073C00000C3
S113016071C000006FC000006DC000006BC00000D3
S113017069C0000067C0000065C0000063C00000E3
S113018061C000005FC000005DC000005BC00000F3
S113019059C0000057C0000055C0000053C0000003
S11301A051C000004FC000004DC000004BC0000013
S11301B049C0000047C0000045C0000043C0000023
S11301C041C000003FC000003DC000003BC0000033
S11301D039C0000037C0000035C0000033C0000043
S11301E031C000002FC000002DC000002BC0000053
S11301F029C000000C94090C0C94BE0CB1089F0893
S1130200A208A508A808AB08AE0811241FBECFEFAA
S1130210CDBFDFE2DEBF10E2A0E0B0E2EEE5FCE13C
S113022002C005900D92AC37B107D9F722E2ACE7D2
S1130230B0E201C01D92AB3FB207E1F70E94E90DA5
S11302400C942D0EDDCE8FEF80937000809371009F
S11302508093720080937300809374008093750080
S11302608093760008951092922110929E2110920C
S11302709F2181EA8093942180E2809395211092BA
S1130280962110929721109298211092992182E040
S113029090E080939A2190939B2110929C2110923C
S11302A09D2180E092ECA1E0B0E08093A0219093A6
S11302B0A121A093A221B093A3211092A421109272
S11302C0A52188E08093A621809192218F5F80935D
S11302D0922181E00895809192218150809392210E
S11302E00895809191218150809391218091912151
S11302F010929021089580E0089580E008958091FF
S1130300EB228823DCF480768032E9F58091EC22BC
S11303108132D9F58091F1229091F2220797B9F5B3
S113032080EA91E28093F3229093F42287E090E0B4
S11303308093F5229093F62281E0089580768032AE
S113034041F58091EC22803221F0823221F581E066
S113035008958091F1229091F2220797F1F48FECA5
S113036091E08093F7229093F82280EA91E28093BF
S1130370F3229093F42287E090E08093F522909307
S1130380F62281E0089580E0089580E0089580E0F9
S1130390089580E0089580E0089580E00895089528
S11303A0FF920F931F93CF93DF9380917F2081114E
S11303B09CC00E944C0A882351F0C0918020D091A7
S11303C081200E94590AC817D90759F48EC0C091D8
S11303D08020D09181200E94540AC817D90709F4BB
S11303E084C0DFB7F894C0918220EC2FF0E0EE0FC8
S11303F0FF1FED57FF4D80819181892B09F5809175
S11304007C2090917D20019680937C2090937D2088
S11304100E944C0A811107C080917C2090917D201C
S11304208436910558F00E944C0A882349F0809143
S11304307C2090917D208032934010F4DFBF55C022
S113044010927C2010927D2080917E20811106C024
S113045081E0C11180E08093822004C081E0C11159
S113046080E0C82F81E080937F20DFBFD0E0FE01D1
S1130470EE0FFF1FED57FF4DFF24F3948081918110
S11304808034910509F4F12CFF2091F00E944C0A6C
S1130490882339F00E94590A809380209093812008
S11304A00BC00E94540A809380209093812004C042
S11304B01092802010928120FE01EE0FFF1FED5755
S11304C0FF4D20813181AE01002456954795079454
S11304D0569547950794542F402D48575F4D0BE789
S11304E012E06F2D81E80E940B0BDF91CF911F91D9
S11304F00F91FF900895811115C02091822081E011
S113050090E0222311F080E090E0FC01EE0FFF1F49
S1130510ED57FF4D1082118210927E2010927F20A1
S113052080E03ECF089580E03BCF08954FB7F89424
S11305302091092130910A21E0910B21F0E0EE0F86
S1130540FF1FE45FFE4D80819181821B930B4FBF9F
S11305500895ECDF21E0892B09F420E0822F08952F
S11305600F931F93CF93DF934FB7F89450910B21C0
S113057080910821811110C02091092130910A2114
S1130580C52FD0E0FE01EE0FFF1FE45FFE4D80811A
S113059091812817390718F44FBF80E023C01092C7
S11305A0092110920A2181E0511180E080930B21EE
S11305B081E0809308214FBF80E0CBDFAE010024AF
S11305C0569547950794569547950794542F402D73
S11305D0405F5E4D09E213E020E430E061E082E038
S11305E00E940B0BDF91CF911F910F9108951092F0
S11305F0912110927F2010927E20109282201092DE
S113060083201092842010928520109286201092CC
S113061080201092812080E0C3DE10920821109285
S11306200B2110920C2110920D211092092110928D
S11306300A2180E095DF882359F0909191219F5FF2
S11306409093912190919121913011F49093902164
S113065008950F931F93942F811128C080910B212B
S1130660E1E08111E0E061157105A9F4F0E00024F6
S1130670F695E7950794F695E7950794FE2FE02DF8
S1130680AF01405F5E4D09E213E020E430E061E039
S1130690892FC1D70BC0F0E0EE0FFF1FE45FFE4DC2
S11306A0608371831092082180E05ADF1F910F91BB
S11306B00895E091AC21F091AD210190F081E02DFD
S11306C0228133812E0F3F1FFC014081E40FF11D75
S11306D0E217F307A0F481818430A1F0861306C0E9
S11306E014C081818430A1F08617A9F08081E80FBD
S11306F0F11DE217F307A8F380E090E0089580E08D
S113070090E0089580E090E008958E2F9F2F089543
S113071080E090E008958E2F9F2F08958091ED2220
S11307208F77BCC608959091AE21992381F1E09111
S1130730AC21F091AD210190F081E02D94818917D5
S113074040F5E093AA21F093AB21228133812E0F4F
S11307503F1FE217F307F8F49181943061F492811A
S1130760981309C09381961306C0E093AA21F093CD
S1130770AB2181E008959081E90FF11DE217F307A1
S113078058F3E093AA21F093AB2180E0089580E030
S1130790089580E0089580E00895FF920F931F93D9
S11307A0CF93DF93C82F60E0BEDFF82E882379F162
S11307B0A091AC21B091AD21EC2FF0E0EE0FFF1F22
S11307C012962D913C911397E20FF31F0081118132
S11307D0D8011696ED91FC9117970995682F8C2FE7
S11307E0A2DFF82E882399F0C091AA21D091AB21E1
S11307F065E0CE015EDFEC01009719F08A81CBD76A
S1130800F7CFD8011296ED91FC91139709958F2D8E
S1130810DF91CF911F910F91FF9008951F93CF9374
S1130820DF93182F80DF882339F1C091AA21D0915A
S1130830AB2165E0CE013DDFEC01009741F04C8136
S11308405D816B818A8141D68111F3CF15C0A0915E
S1130850AC21B091AD21812F90E0880F991F1296A1
S1130860ED91FC911397E80FF91F0190F081E02DB1
S11308700190F081E02D0995DF91CF911F910895AA
S1130880CF938091AE218823C1F0E091AC21F09107
S1130890AD210190F081E02D8481882371F0C0E0C6
S11308A08C2F7BDFCF5FE091AC21F091AD210190E3
S11308B0F081E02D8481C81798F31092AE2181E075
S11308C090E08093AF219093B021CF910895CF937E
S11308D08091AE21882341F1E091AC21F091AD21CA
S11308E0A081B18114968C918823F1F0C0E08C2F03
S11308F090E0880F991F0280F381E02DE80FF91F23
S11309000190F081E02D0084F185E02D309709F00D
S11309100995CF5FE091AC21F091AD21A081B18127
S113092014968C91C81718F3CF910895EF92FF9203
S11309300F931F93CF93DF931092F5221092F62218
S11309401092F7221092F8221092F9221092FA22B1
S11309502091EB2222230CF065C28091F122909128
S1130960F222009709F063C259C22F7109F08BC0BB
S11309703091EC22363081F0383009F479C03111ED
S113098082C0029739F462E070E08FEA91E294D574
S113099001E0C7C100E0C5C12091ED223091EE22F3
S11309A0832F99278230910599F01CF4019739F02F
S11309B055C083309105D1F10F9759F14FC0809103
S11309C0142090911520DC016C9170E075D535C030
S11309D0E0911420F09115208189281708F040C077
S11309E0C9019927880F991F880F991FE091162034
S11309F0F0911720E80FF91F80819181FC01628139
S1130A0073815AD5E091F322F091F42282E081833C
S1130A1014C08091182090911920009719F1DC01DD
S1130A2012966D917C91139747D507C021111CC074
S1130A3064E070E088E790E23FD58091F1229091E4
S1130A40F2222091F5223091F6228217930770F456
S1130A508093F5229093F62201E063C100E061C126
S1130A6000E05FC100E05DC100E05BC101E059C18D
S1130A70019739F461E070E08EEA91E21DD501E05E
S1130A8050C100E04EC1213009F03FC03091EC224A
S1130A903A30D9F5019799F58091AE21882389F1EF
S1130AA0C091EF22D091F022E090AC21F090AD21E2
S1130AB0D701ED91FC918481C81728F560E08C2F53
S1130AC032DE082F882309F42CC1CE019927880F20
S1130AD0991FD7011296ED91FC911397E80FF91F16
S1130AE00190F081E02D0680F781E02D0995809337
S1130AF0A92161E070E089EA91E2DED412C100E04C
S1130B0010C100E00EC100E00CC1223009F00BC19D
S1130B102091EC22211100C1029779F48091EF22F7
S1130B2035D590E08093A7219093A82162E070E0EE
S1130B3087EA91E2C1D401E0F4C000E0F2C02F7171
S1130B4009F090C08091EC22833009F4E7C018F4D6
S1130B508130B1F087C0853019F0893061F182C0ED
S1130B608091F1229091F222892B41F48EE893E056
S1130B708093F7229093F82201E0D3C000E0D1C023
S1130B808091F1229091F222892B89F48091ED22B7
S1130B909091EE22019769F48091AF219091B02158
S1130BA08D7F8093AF219093B02101E0BAC000E023
S1130BB0B8C000E0B6C08091F1229091F222892B56
S1130BC009F046C06ED4882309F444C02091ED2274
S1130BD03091EE223327E0911420F0911520818981
S1130BE090E082179307C0F14BDE8091ED22909143
S1130BF0EE228093AE21882389F199278150904C6D
S1130C00880F991F880F991FE0911620F0911720E3
S1130C10E80FF91FE093AC21F093AD210190F0812E
S1130C20E02D84818823E1F0C0E060E08C2FF6DDC4
S1130C30082F882309F475C0CF5FE091AC21F091AF
S1130C40AD210190F081E02D8481C81770F369C053
S1130C5000E067C000E065C000E063C001E061C07F
S1130C6001E05FC0213009F58091EC228B30E9F47A
S1130C708091F1229091F222892B99F48091AE21F6
S1130C80882389F0C091EF22D091ED228C2F85DD4D
S1130C90082F882309F445C06D2F8C2FBFDD082F42
S1130CA040C000E03EC000E03CC0223009F03BC040
S1130CB08091EC22813019F08330B1F031C0809101
S1130CC0F1229091F222892B59F48091ED22909196
S1130CD0EE22892B39F48091EF2273D4082F21C09E
S1130CE000E01FC000E01DC08091F1229091F2222B
S1130CF0892B71F48091ED229091EE22892B51F48D
S1130D00CFEED2E288810ED5888162D5082F09C042
S1130D1000E007C000E005C000E003C000E001C03F
S1130D2000E0011189C08091EB228F718130C1F5FF
S1130D308091AE218823A1F1C091EF22D091F022BD
S1130D400091AC211091AD21D801ED91FC918481E9
S1130D50C81730F560E08C2FE6DC882309F1CE015A
S1130D609927880F991FD8011296ED91FC9113973A
S1130D70E80FF91F00811181D8011696ED91FC91BD
S1130D8017970995682F8C2FCEDC882349F0D8015A
S1130D901496ED91FC9115970995082F81114CC07B
S1130DA08091EB228F718230D9F58091AE21882316
S1130DB089F1E091AC21F091AD21A081B18114962B
S1130DC08C91882349F110E0212F30E0220F331F4A
S1130DD00280F381E02DE20FF31FC081D181EE8107
S1130DE0FF810995682F812F9EDC082F882321F12C
S1130DF0EC81FD810995082F81111EC01F5FE091D0
S1130E00AC21F091AD21A081B18114968C91181779
S1130E10D8F212C000E010C000E00EC000E00CC028
S1130E2000E00AC0822F807609F07DCF88CE322F71
S1130E30307609F078CF99CD802FDF91CF911F9133
S1130E400F91FF90EF9008951F920F920FB60F929B
S1130E5011248F939F93EF93FF93E3EEF2E280814B
S1130E609181019680839183FF91EF919F918F915E
S1130E700F900FBE0F901F9018951F920F920FB6F0
S1130E800F921124CF92DF92EF92FF920F931F9350
S1130E902F933F934F935F936F937F938F939F937E
S1130EA0AF93BF93EF93FF934091E3225091E422D9
S1130EB08091E5229091E62248175907F0F181E0EC
S1130EC0E0E0F4E08283E091E922F091EA223097B5
S1130ED0A1F1A0E0B4E018968D919C91199760E07F
S1130EE070E0BA0155274427A0E0B0E08A019B01D5
S1130EF0082B192B2A2B3B2BC901B8010091E522A1
S1130F001091E62220E030E0980111270027C090DC
S1130F10E722D090E822E12CF12C0C291D292E295E
S1130F203F29061717072807390730F0C901B80108
S1130F306F5F7F4F8F4F9F4F0995FF91EF91BF9147
S1130F40AF919F918F917F916F915F914F913F915D
S1130F502F911F910F91FF90EF90DF90CF900F9002
S1130F600FBE0F901F901895811118C09091DC222C
S1130F70992389F09FB7F894EEEDF2E22081215095
S1130F8020839FBF08C09FB7F894EEEDF2E2208162
S1130F902F5F20839FBF8093DC2208959091DC22F1
S1130FA0992389F3F8CF0F93E8ECF4E080818F7DE7
S1130FB0808380818F7D8083E0EBF2E202E0059301
S1130FC01092B2221092B32200E2069300E4069338
S1130FD0E8EAF2E200E2069300E406931092F722B4
S1130FE01092F8221092F9221092FA221092F5220D
S1130FF01092F62210929A220F9108950F9385E091
S113100080939A22E1EBF2E204E00593E9EAF2E24A
S113101004E005930F9108950F9383E080939A223F
S11310201092B2221092B322E0EBF2E202E00693B5
S11310300F910895E091F722F091F822309709F08A
S1131040099508950F93CF93DF9380919A2283306B
S113105019F4F0DFA8DF60C0809196229091972266
S1131060C091F522D091F622C81BD90B71F52091BD
S1131070982230919922820F931F80939822909303
S113108099222091F1223091F2228217930721F0C4
S11310908091B121882341F084E080939A22E8EA88
S11310A0F2E202E0069338C0E091F922F091FA22CC
S11310B0309799F00995882381F010929622109226
S11310C09722C091F522D091F622C034D10528F0A0
S11310D01092B121C0E4D0E003C081E08093B1213B
S11310E0C093B222D093B3228091962290919722FA
S11310F02091F3223091F422280F391F2093B42237
S11311003093B522C80FD91FC0939622D09397224B
S1131110E0EBF2E202E00693DF91CF910F910895A4
S1131120FC018181877090E0FC013197E730F10583
S113113018F4E250FF4F82C588E090E0089580E201
S113114090E0089580E490E0089580E890E00895A8
S113115080E091E0089580E092E008958FEF93E0BD
S1131160089580E190E00895282F2F7030E0220F39
S1131170331F992787FD90958827990F881F9927F2
S1131180820F931F02979C01220F331F220F331FDC
S1131190220F331F820F931F8E5C9D4D08950F9372
S11311A0CF938091CC0480FF62C081E08093CC0413
S11311B0E8EAF2E200E80693E0EBF2E200E80693E4
S11311C08093CA04E8EAF2E200E1069380919A224D
S11311D0882329F08350823008F42CDFE4DE8091E8
S11311E0AA229091AB22089709F043C088E0E6E573
S11311F0F2E2ABEEB2E201900D928A95E1F7E8ECEF
S1131200F4E08081806280838081806280838EDBD1
S1131210C82F811103C0F2DEC1E02CC08091EB2203
S113122088236CF41092982210929922109296229C
S11312301092972282E080939A2204DF1BC02091AF
S1131240F1223091F222232B11F4E6DE13C0109226
S1131250982210929922109296221092972281E05D
S113126080939A22E8EAF2E202E0069303C0C0E027
S113127001C0C1E08C2FCF910F910895BF92CF92FE
S1131280DF92EF92FF920F931F93CF93DF93B82EC9
S11312906BDFEC011B2D111F1127111F8B2D8F707C
S11312A0E82EF12CEE0CFF1CE10EF11CC701880F97
S11312B0991F880F991F880F991F9C0128553D4D30
S11312C07901C9012DDF6C01112309F459C0D7013B
S11312D016962D913C9117978D819E81280F391F69
S11312E02D833E838B819C8128173907B9F1FC013A
S11312F0E21BF30B9F012115F4E03F0738F02FEFB9
S113130033E0C901B60186D4281B390B888181FFDB
S113131009C0C901B6017ED441E0892B09F040E03F
S1131320942F01C090E0888190FB81F98883D701D4
S113133016961D921C92179712962D933C93139711
S113134029813A818D819E81820F931F14968D93FA
S11313509C931597F70102E0069394C0888181FF5E
S113136083C08D7F8883D70116961D921C92179790
S113137012961D921C921397F70102E0069382C005
S1131380D70112960D911C911397888182FF13C087
S1131390E981FA812D813E818B819C81B6013AD409
S11313A0B0E4BB9EB00111246E587E4DAC01CF0158
S11313B0820F931F49D42D813E81200F311F2D832D
S11313C03E83EB81FC81E217F30710F4ED83FE8387
S11313D0D70116968D919C9117978017910709F064
S11313E043C08D819E81E817F90709F43DC0E81BCD
S11313F0F90BE115B4E0FB0740F0EFEFF3E0CF01A8
S1131400B60108D4E81BF90B05C0CF01B60102D41C
S1131410E81BF90BD70112961D921C921397EC1539
S1131420FD0578F4888184608883B0E4BB9EC001A4
S113143011248E589E4DF70184839583C682D782EA
S11314400FC029813A818D819E81820F931FD7011C
S113145014968D939C9315971696ED93FC9317977A
S1131460F70102E006930EC0888180FF0BC08E7FD7
S11314708883EF81F885309729F06D817E814B2D2B
S113148080E00995DF91CF911F910F91FF90EF902C
S1131490DF90CF90BF90089580E008958093C304B7
S11314A008958091C30408958091D8229091D922FF
S11314B0089580E090E008958093F3229093F422BD
S11314C06093F5227093F6220895E82FEF70F0E010
S11314D0EE0FFF1F992787FD90958827990F881F86
S11314E09927E80FF91FEE0FFF1FEE0FFF1FEE0FF6
S11314F0FF1FE855FD4D8181807C09F043C0637076
S1131500613029F010F480E403C080E801C080EC6D
S113151040385105E1F050F440325105A1F0403417
S1131520510599F04031510561F419C0411592E01B
S1131530590789F04F3F93E0590779F0411551401D
S113154041F020E00DC022E00BC023E009C024E0FC
S113155007C025E005C026E003C027E001C021E064
S1131560118296E09083822B81838181807C803CF0
S113157021F481818770873039F081818062818391
S113158081E0089580E0089581E00895E82FEF70E8
S1131590F0E0EE0FFF1F992787FD90958827990F9C
S11315A0881F9927E80FF91FEE0FFF1FEE0FFF1F8B
S11315B0EE0FFF1FE855FD4D818182FB882780F9DE
S11315C00895E82FEF70F0E0EE0FFF1F282F332768
S11315D027FD30952227330F221F3327E20FF31FF5
S11315E0EE0FFF1FEE0FFF1FEE0FFF1FE855FD4D1F
S11315F0918192FF0EC091819B7F9183B5DDFC01A7
S1131600808180FF06C08E7F80830780F085E02D77
S1131610099581E008957F928F929F92AF92BF9235
S1131620CF92DF92EF92FF920F931F93CF93DF93AA
S1131630982E862E5A01690197DD7C01792C771C3E
S11316407724771CC92DCF70D0E0CC0FDD1FC70DD8
S1131650D11DCC0FDD1FCC0FDD1FCC0FDD1FC855F6
S1131660DD4D8981807C09F44BC08981807C803C7C
S113167019F0898182FD46C08FB7F894F7019081F3
S113168090FF03C08FBF712C3EC0F7019081916021
S113169090838FBFF701A182B282C382D482158264
S11316A0168207831087811006C091E0C114D1040B
S11316B019F090E001C091E0F701808190FB81F97D
S11316C08B7F8083772019F01E821F8214C089814A
S11316D0807C803C61F4CE0123DDBC01C6019AD23A
S11316E0892B29F0F70180818E7F80830CC01A82B8
S11316F01B821E821F82892DC1DD7724739403C04F
S1131700712C01C0712C872DDF91CF911F910F9106
S1131710FF90EF90DF90CF90BF90AF909F908F900D
S11317207F900895FF920F931F93CF93DF93182F09
S1131730F82EFF1CFF24FF1CC82FCF70D0E0CC0F65
S1131740DD1FCF0DD11DCC0FDD1FCC0FDD1FCC0F46
S1131750DD1FC855DD4D08DDDC01FE0102E0059307
S11317608C9180FF12C08E7F8C931796ED91FC9123
S11317701897309751F0FF2019F06E817F8102C0D5
S11317806A817B81412F81E00995DF91CF911F917F
S11317900F91FF900895CF93C82FC4DFEC2FEF7003
S11317A0F0E0EE0FFF1F8C2F992787FD9095882777
S11317B0990F881F9927E80FF91FEE0FFF1FEE0FEF
S11317C0FF1FEE0FFF1FE855FD4D1182CF910895C5
S11317D00F93E82FEF70F0E0EE0FFF1F282F332751
S11317E027FD30952227330F221F3327E20FF31FE3
S11317F0EE0FFF1FEE0FFF1FEE0FFF1FE855FD4D0D
S113180091819460918301E006938CDF81E00F91D4
S113181008951F920F920FB60F9211240F932F93D6
S11318203F934F935F936F937F938F939F93AF9364
S1131830BF93EF93FF938091CB0488232CF480E82B
S11318408093CA0444D888C08091CB0482FF20C00E
S113185084E08093CA048091B02286FF7DC0809189
S1131860CC0481FD79C09BDC811176C080919A22E1
S1131870813011F4D1DB70C0843009F06DC0E1EB2C
S1131880F2E204E00593E9EAF2E204E0059364C0BD
S11318908091CB0481FF5BC082E08093CA04809175
S11318A0A82286FF59C08091CC0481FD55C077DC05
S11318B0811152C080919A22823041F484E0809355
S11318C09A22E8EAF2E202E0069346C0833009F085
S11318D043C0E1EBF2E204E00593E9EAF2E204E05A
S11318E005933AC080E18093CA0481E01BDF81E85C
S11318F019DF0E9440041092C304E9EAF2E2108264
S113190096E09093A82283E48083E1EBF2E21082D4
S11319109093B022808386E592E28093AC229093E8
S1131920AD2241DB19C08091CB0486FF06C080E460
S11319308093CA0480E018DB0FC08091CB0485FF3C
S11319400BC080E28093CA0481E00EDB05C0809165
S1131950CB0484FFE8CFC6CFFF91EF91BF91AF9145
S11319609F918F917F916F915F914F913F912F91B3
S11319700F910F900FBE0F901F9018951F920F920A
S11319800FB60F9211240F931F932F933F934F93EE
S11319905F936F937F938F939F93AF93BF93CF93F3
S11319A0DF93EF93FF938091CC0481FD03C0F7DBB9
S11319B08111B8C082E08093CC048091C5048195E4
S11319C0880FE8EAF2E2E81BF10920813181285A04
S11319D03242369527953695279536952795822F49
S11319E0869520FF02C090E801C090E0890FE82F9F
S11319F0EF70F0E0EE0FFF1F282F332727FD3095FF
S1131A002227330F221F3327E20FF31FEE0FFF1F8E
S1131A10EE0FFF1FEE0FFF1FE855FD4D908195FF60
S1131A2081C000E20693811178C080919A228430AB
S1131A3019F400DBB8DA76C0C091AA22D091AB22A7
S1131A408091F5229091F62200919622109197228E
S1131A5098012C0F3D1F8217930718F4EC01C01B4B
S1131A60D10B8091F3229091F422AE0166E572E2EB
S1131A70800F911FE9D00C0F1D1F00939622109325
S1131A809722C034D10569F48091982290919922CB
S1131A90800F911F2091F1223091F2228217930737
S1131AA088F00093F5221093F622E091F922F09148
S1131AB0FA22309729F00995811102C09FDA32C0C9
S1131AC0ABDA30C08091F5229091F62208171907FD
S1131AD0F9F4E091F922F091FA22309711F48EDAB8
S1131AE021C00995811102C089DA1CC02091982275
S1131AF0309199228091962290919722820F931F80
S1131B008093982290939922109296221092972271
S1131B10E8EAF2E202E0069305C0803811F492DAB2
S1131B2001C0ACDBFF91EF91DF91CF91BF91AF91F9
S1131B309F918F917F916F915F914F913F912F91E1
S1131B401F910F910F900FBE0F901F901895CF9378
S1131B50DF930E94230138D0E0EEF7E082E0828335
S1131B6091E09283E0E8F6E038E0328324E02283D7
S1131B7082839283E0E6F6E040E2428350E15283BE
S1131B80E0E4F6E060E8628370E4728342835283A7
S1131B90A0E0B6E011965C93119711963C931197CF
S1131BA011967C93119711964C931197C0E2D6E04D
S1131BB0998311966C932983898391833983218333
S1131BC08183DF91CF91089588E0E0E4F6E0828399
S1131BD00895BDDFE0E0F6E060E155E146E135E07F
S1131BE020E06583852F942FA32FB22F0197A1099D
S1131BF0B1090097A105B105C9F76683852F942F14
S1131C00A32FB22F0197A109B1090097A105B1052E
S1131C10C9F7E7CFAA1BBB1B51E107C0AA1FBB1F13
S1131C20A617B70710F0A61BB70B881F991F5A9564
S1131C30A9F780959095BC01CD010895EE0FFF1F83
S1131C400590F491E02D0994FB01DC0102C00190A0
S1111C500D9241505040D8F70895F894FFCFFC
S1131C5EF70271017B017D01930233016B017F0158
S1131C6E7D01000066201A20000022201E200A207A
S1131C7E002009024300020100C0320904000001E1
S1131C8E02020100052400100104240202052406A8
S1131C9E0001052401030107058203400010090415
S1131CAE0100020A0000000705810240000007053A
S1131CBE0202400000001201000202000040EB0389
S10F1CCE042400010000000104030904C8
S9030000FC
